:020000040800F2
:100000009015002065010008792500087B2500086F
:100010007F250008832500088725000800000000D0
:100020000000000000000000000000008B25000818
:100030008D250008000000007712000889130008D1
:100040007F0100087F0100087F0100087F01000890
:100050007F0100087F0100087F0100087F01000880
:100060007F0100087F0100087F0100087F01000870
:100070007F0100087F0100087F0100087F01000860
:100080007F0100087F0100087F0100087F01000850
:100090007F0100087F0100087F0100087F01000840
:1000A0007F0100087F0100087F0100087F01000830
:1000B000932500087F0100087F0100087F010008E8
:1000C0007F0100087F0100087F0100087F01000810
:1000D0007F0100089525000897250008992500084C
:1000E0007F0100087F0100087F0100080000000078
:1000F0000000000000000000000000000000000000
:1001000000000000000000007F0100087F010008DF
:100110009B2500087F0100087F0100087F0100087F
:100120007F0100087F0100087F0100087F010008AF
:100130007F0100087F0100087F0100087F0100089F
:100140007F0100087F0100087F0100087F0100088F
:10015000DFF80CD002F04CFB00480047B72700083E
:10016000901500200648804706480047FEE7FEE756
:10017000FEE7FEE7FEE7FEE7FEE7FEE7FEE7FEE757
:1001800099020008510100080CB500200190009070
:100190009248006840F480309049086000BF8F4862
:1001A000006800F4003000900198401C0190009815
:1001B00018B90198B0F5A06FF1D18848006800F433
:1001C000003010B10120009001E000200090009864
:1001D00001285CD18248006840F010008049086026
:1001E0000846006820F0030008600846006840F0F8
:1001F00002000860794840687849486008464068CD
:1002000048600846406840F4806048600846C06A1C
:10021000744908407149C8620846C06A7249084377
:100220006E49C8620846006840F08060086000BF00
:100230006A48006800F000600028F9D0674840680C
:1002400020F47C10654948600846406840F4E81096
:1002500048600846006840F08070086000BF5F4852
:10026000006800F000700028F9D05C48406820F079
:1002700003005A4948600846406840F00200486060
:1002800000BF5648406800F00C000828F9D10CBDAA
:1002900010B5FFF779FF10BD10B55048006840F069
:1002A00001004E49086008464068504908404B49E3
:1002B0004860084600684E490840484908600846BA
:1002C000006820F4802008600846406820F4FE00A2
:1002D00048600846006820F0A05008604FF47F0096
:1002E00088600020C862FFF7D3FF4FF000604149EB
:1002F000086010BDF0B5002100200023002400227A
:1003000000250026354F7F6807F00C0121B1042934
:1003100008D008294BD10BE0374FDFF8E0C0CCF80C
:1003200000704AE0364FDFF8D4C0CCF8007044E0EB
:100330002A4F7F6807F47010284F7F6807F48033D6
:10034000800C0D2801D0801C00E0062033B92D4F11
:100350004743DFF8A8C0CCF8007027E01F4FFF6AC2
:1003600007F480341D4FFF6A07F00F077A1C44B969
:10037000234FB7FBF2F74743DFF880C0CCF800709B
:1003800014E0164FFF6AC7F303177D1C134FFF6A73
:10039000C7F30327BE1C1A4FB7FBF5F77743B7FB2C
:1003A000F2F74743DFF854C0CCF8007005E0124F75
:1003B000DFF848C0CCF8007000BF00BF074F7F686F
:1003C000C7F30317DFF840C01CF807100B4F3F6856
:1003D000CF40DFF828C0CCF80070F0BD001002401C
:1003E0000020024000F0FEFF440601000000FFF084
:1003F000FFFFF6FE08ED00E000127A00000000208A
:10040000001BB70000093D00040000200146002049
:10041000FE4A106800F03800084310607047FB493E
:10042000096821F00801F94A116011460968014381
:1004300011607047F549096821F01001F34A116015
:1004400011460968014311607047F148EF4948605F
:10045000F04848607047EE48EC494860ED48486015
:100460007047EA48006940F08000E8490861704739
:10047000E648006940F08000E449086170470420C4
:10048000E249C96801F0010109B101200EE0DF492C
:10049000C96801F0040109B1022007E0DB49C9681D
:1004A00001F0100109B1032000E00420704700B5FD
:1004B00002460423FFF7E3FF034603E0FFF7DFFFF5
:1004C0000346521E012B01D1002AF7D102B90523A0
:1004D000184600BD30B5044604254FF43020FFF720
:1004E000E6FF0546042D17D1C848006940F0020018
:1004F000C649086108464461006940F0400008614F
:100500004FF43020FFF7D3FF0546C048006941F69D
:10051000FD710840BD490861284630BD10B504246E
:100520004FF43020FFF7C3FF0446042C16D1B74820
:10053000006940F00400B54908610846006940F0D0
:10054000400008614FF43020FFF7B1FF0446AF4888
:10055000006941F6FB710840AC490861204610BDB6
:1005600000B502460423FFF78AFF034603E0FFF7C6
:1005700086FF0346521E012B01D1002AF7D102B992
:100580000523184600BD10B504244FF43020FFF7B2
:10059000E7FF0446042C16D19C48006940F0040093
:1005A0009A4908610846006940F0400008614FF42C
:1005B0003020FFF7D5FF04469448006941F6FB71EF
:1005C000084092490861204610BD00208F49C96942
:1005D00001F0020109B1012000E00020704730B5B0
:1005E000A5250424FFF7F1FF00B100254FF43020CA
:1005F000FFF75DFF0446042C3AD1854883498860A3
:10060000844888600846006940F020000861084678
:10061000006940F0400008614FF43020FFF747FFC9
:100620000446042C1BD17948006941F6DF7108406B
:10063000764908610846006940F010000861764874
:100640000580E002FFF733FF0446052C10D06F4809
:10065000006941F6EF7108406C49086108E0052C1B
:1006600006D06A48006941F6EF71084067490861A1
:10067000204630BD78B506460C4604250020009083
:10068000E802FFF714FF0546042D24D15F480069F6
:1006900040F001005D4908613480E802FFF707FF80
:1006A0000546042D10D1B01C0090200C0099088044
:1006B000E802FFF7FCFE05465448006941F6FE716A
:1006C00008405249086106E05048006941F6FE7151
:1006D00008404E490861284678BD70B504460D466D
:1006E0000426F002FFF7E3FE0646042E11D1474828
:1006F000006940F00100454908612580F002FFF7DC
:10070000D6FE06464148006941F6FE7108403F4961
:100710000861304670BD70B505460E460424E002FF
:10072000FFF7C5FE0446042C17D1394837498860C5
:10073000384888600846006940F0100008612E8043
:10074000E002FFF7B4FE0446052C06D02F480069EE
:1007500041F6EF7108402D490861204670BD2DE932
:10076000F04304464FF6FF763746B046B1460425BF
:10077000E443E6B2C4F30727C4F307484FEA146919
:10078000E802FFF794FE0546042D49D120481F4991
:100790008860204888600846006940F010000861C1
:1007A000FF2E06D01C4808300680E802FFF77FFEC7
:1007B0000546042D08D1FF2F06D017480A300780C0
:1007C000E802FFF774FE0546042D0AD1B8F1FF0FC9
:1007D00007D011480C30A0F80080E802FFF767FE50
:1007E0000546042D0AD1B9F1FF0F07D00A480E3093
:1007F000A0F80090E802FFF75AFE0546052D0FD03D
:100800000248006941F6EF71084007E0002002400D
:1008100023016745AB89EFCD00F8FF1F66490861EA
:100820002846BDE8F08330B5054604244FF4302057
:10083000FFF73DFE0446042C41D160485E498860C4
:100840005F4888600846006940F02000086108465B
:10085000006940F0400008614FF43020FFF727FEA8
:100860000446042C22D15448006941F6DF71084047
:10087000514908610846006940F0100008611DB147
:1008800000205049088002E0A5204E4908804FF41E
:100890003020FFF70CFE0446052C10D046480069B6
:1008A00041F6EF7108404449086108E0052C06D084
:1008B0004148006941F6DF7108403F490861204620
:1008C00030BDF0B505460E46174604243B483A496C
:1008D00088603B488860E002FFF7E9FD0446042C8D
:1008E00019D13548006940F010003349086147F0DC
:1008F000F800304328433349891C0880E002FFF7A1
:10090000D6FD0446052C06D02B48006941F6EF7150
:100910000840294908612046F0BD2748C069800881
:1009200070472548006A704700202349096801F094
:10093000200109B1012000E00020704729B11E4AC2
:10094000126902431C4B1A6104E01B4A126982437C
:10095000194B1A61704701460020012908D1164A37
:10096000D26902F001020AB1012008E0002006E08D
:10097000114AD2680A400AB1012000E00020704705
:100980000D49C860704704200B49C96801F0010196
:1009900009B101200EE00849C96801F0040109B15C
:1009A000022007E00449C96801F0100109B10320E1
:1009B00000E004207047000000200240230167454A
:1009C000AB89EFCD00F8FF1F10B50446CC48844238
:1009D00008D10121042000F0E9FB0021042000F0EF
:1009E000E5FB46E0C748844208D10121082000F019
:1009F000DDFB0021082000F0D9FB3AE0C248844228
:100A000008D10121102000F0D1FB0021102000F0BE
:100A1000CDFB2EE0BD48844208D10121202000F00A
:100A2000C5FB0021202000F0C1FB22E0B848844231
:100A300008D10121402000F0B9FB0021402000F046
:100A4000B5FB16E0B348844208D10121802000F0B4
:100A5000ADFB0021802000F0A9FB0AE0AE488442F3
:100A600007D10121801500F0A1FB0021A01500F0A5
:100A70009DFB10BD10B50121084600F097FB002139
:100A8000012000F093FB10BD2DE9F0410246002546
:100A90000026002000230024002791F803C00CF05A
:100AA0000F0591F803C00CF0100CBCF1000F03D03F
:100AB00091F802C04CEA050591F800C0BCF1000FA6
:100AC00031D0146800202BE04FF0010C0CFA00F339
:100AD000B1F800C00CEA03069E4220D183004FF01B
:100AE0000F0C0CFA03F7BC4305FA03FC4CEA0404B0
:100AF00091F803C0BCF1280F06D14FF0010C0CFA9D
:100B000000FCC2F814C00AE091F803C0BCF1480F21
:100B100005D14FF0010C0CFA00FCC2F810C0401CCB
:100B20000828D1D31460B1F800C0BCF1FF0F34DD48
:100B3000546800202EE000F1080C4FF0010808FA7C
:100B40000CF3B1F800C00CEA03069E4221D18300E9
:100B50004FF00F0C0CFA03F7BC4305FA03FC4CEA08
:100B6000040491F803C0BCF1280F05D100F1080C72
:100B700008FA0CF8C2F8148091F803C0BCF1480FD1
:100B800007D100F1080C4FF0010808FA0CF8C2F880
:100B90001080401C0828CED35460BDE8F0814FF689
:100BA000FF710180022181700421C17070470246EB
:100BB000002093680B400BB1012000E0002070473B
:100BC0000146886880B2704702460020D3680B4017
:100BD0000BB1012000E0002070470146C86880B2D8
:100BE000704701617047416170470AB1016100E0DF
:100BF00041617047C16070474FF480320A4382619F
:100C00008161826182698269704702460020434B9C
:100C100018684FF68073184040EA021008433F4BB3
:100C2000186070473E49C8617047F0B50A46002316
:100C300000240021002500F00046B6F1004F02D14B
:100C4000364EF16901E0354E7168C0F3034583B259
:100C500000F44016B6F5401F08D121F070612F4E08
:100C6000766826F070662D4F7E6012E000F48016E4
:100C7000B6F5801F06D1032606FA05F4A14341F01C
:100C8000706106E0460D360103FA06F6B14341F005
:100C9000706122B1460D360103FA06F6314300F0C9
:100CA0000046B6F1004F02D11C4EF16101E01B4E2F
:100CB0007160F0BD30B500228B071C0F0F2303FAC3
:100CC00004F2164B08338C1053F824309343134C22
:100CD00008348D1044F8253023468C1053F8243006
:100CE0008C07240F00FA04F423430C4C08348D10B5
:100CF00044F8253030BD0A49DC31086070470000F7
:100D000000080140000C01400010014000140140A7
:100D100000180140001C014000200140000001407B
:100D200000002042FB48006840F00100F9490860DB
:100D300008464068F8490840F64948600846006897
:100D4000F6490840F34908600846006820F480200E
:100D500008600846406820F4FE00486008460068C5
:100D600020F0A05008604FF47F0088600020C86227
:100D70007047E849096821F48031E64A116011465C
:100D8000096821F480211160B0F5803F03D0B0F5EF
:100D9000802F0ED106E0DF49096841F48031DD4A39
:100DA000116007E0DB49096841F4A021D94A1160CC
:100DB00000E000BF00BF704710B5014600220023CD
:100DC00000204A11012A02D1D24C236806E0022AEF
:100DD00002D1D04C236A01E0CE4C636A01F01F02BD
:100DE000012494401C400CB1012000E0002010BD03
:100DF00038B5002000900024002500BF3120FFF707
:100E0000DBFF05460098401C00900098B0F5A06FED
:100E100001D0002DF2D03120FFF7CEFF08B1012420
:100E200000E00024204638BD01460020B94A106881
:100E300020F0F80040EAC10010607047B84908602F
:100E4000704702460020B34B586820F4741042EA01
:100E500001031843AF4B58607047B14908667047AB
:100E600002460020AB4BD86AAE4B184042EA010361
:100E70001843A84BD862704701460020A54AD06AA3
:100E800020F0F0000843D062704701460020A14ADC
:100E9000D06A20F470600843D0627047A049886629
:100EA0007047014600209B4AD06A20F470400843F6
:100EB000D06270479A490867704701460020954AFA
:100EC000506820F003000843506070479148406824
:100ED00000F00C007047014600208E4A506820F058
:100EE000F00008435060704701460020894A50686E
:100EF00020F4E06008435060704701460020854AB6
:100F0000506820F4605040EAC1005060704729B139
:100F1000804A527A02437F4B5A7204E07D4A527AE9
:100F200082437C4B5A7270477D49D83108607047C4
:100F300001460020774A506820F440400843506042
:100F400070477949086070477749091D0860704704
:100F50000021704A203211706E4A82F82010012858
:100F600002D004280AD104E001216A4A203211701B
:100F700005E00521674A2032117000E000BF00BF84
:100F800070476A49086070476249096A0143614ACB
:100F90001162704765494439086070472DE9F04196
:100FA00000210022002500230026002400278C4673
:100FB000DFF86081D8F8048008F00C0121B1042921
:100FC00007D0082959D109E0DFF86481C0F8008012
:100FD00058E0DFF86081C0F8008053E0DFF834812A
:100FE000D8F8048008F47012DFF82881D8F804805B
:100FF00008F48035920C0D2A01D0921C00E00622E4
:1010000035B9DFF8348102FB08F8C0F8008033E01E
:10101000DFF80081D8F82C8008F48036DFF8F480FF
:10102000D8F82C8008F00F0808F1010446B9DFF861
:101030000481B8FBF4F808FB02F8C0F800801BE05C
:10104000DFF8D080D8F82C80C8F3031808F1010726
:10105000DFF8C080D8F82C80C8F3032808F1020C10
:10106000DFF8D080B8FBF7F808FB0CF8B8FBF4F811
:1010700008FB02F8C0F8008004E0DFF8B480C0F894
:10108000008000BF00BFDFF88C80D8F8048008F033
:10109000F0010909DFF8A48018F80130D0F80080C9
:1010A00028FA03F8C0F80480DFF86880D8F80480D4
:1010B00008F4E061090ADFF8848018F80130D0F8FC
:1010C000048028FA03F8C0F80880DFF84880D8F8D0
:1010D000048008F46051C90ADFF8608018F8013014
:1010E000D0F8048028FA03F8C0F80C80DFF82480D8
:1010F000D8F8048008F44041890BDFF8448018F8E0
:101100000130D0F80C80B8FBF3F8C0F81080BDE8CF
:10111000F0810000001002400000FFF0FFFFF6FE2B
:1011200000004242F0FFFEFFC405424280044242FA
:1011300000127A00001BB70000093D0014000020D7
:101140002400002029B1354A52690243334B5A61C9
:1011500004E0324A52698243304B5A61704729B1E8
:101160002E4A926902432D4B9A6104E02B4A926900
:1011700082432A4B9A61704729B1284AD2690243B7
:10118000264BDA6104E0254AD2698243234BDA61B7
:10119000704729B1214A926A0243204B9A6204E0C7
:1011A0001E4A926A82431D4B9A62704729B11B4ABC
:1011B000D2680243194BDA6004E0184AD2688243CD
:1011C000164BDA60704729B1144A12690243134B77
:1011D0001A6104E0114A12698243104B1A61704788
:1011E0000F49086070470F49C86470470B49C871C0
:1011F00070470A48406A40F080700849486270476A
:1012000001460020054A92680A400AB1012000E028
:1012100000207047014988727047000000100240AA
:101220004004424200004242EFF3108072B6704721
:1012300080F310887047204C204D25604FF000044B
:1012400084F309881E4C4FF0010525701D4C4FF0AA
:101250008055256062B6FEE730B41A4C4FF08055D9
:10126000256030BC704730B4164C4FF08055256077
:1012700030BC704700BF72B6EFF3098028B1203848
:1012800080E8F00F10490968086000B50F488047F2
:101290005DF804EB0E480F490A7802700A480E49BF
:1012A0000A680260106890E8F00F203080F3098827
:1012B0004EF0040E62B6704720ED00E00000FFFF24
:1012C0004A00002004ED00E05000002083130008D5
:1012D0003F00002040000020580000207047704769
:1012E000704770477047704770B5044610464FF01E
:1012F00080750560051F28462C606FF00106051FEC
:1013000028462E604FF01236051F28462E604FF0FB
:101310000336051F28462E604FF00236051F28466B
:101320002E607610051F28462E60051F284629606E
:101330004FF01136051F28462E604FF01036051F5E
:1013400028462E604FF00936051F28462E604FF0C4
:101350000836051F28462E604FF00736051F284621
:101360002E604FF00636051F28462E604FF00536DA
:10137000051F28462E604FF00436051F28462E60B4
:1013800070BD70477047704710B5FFF74DFF0446BA
:1013900006480078401C054908702046FFF748FFC2
:1013A00000F07DFA00F054F910BD00003D0000206F
:1013B0007CB5002514E06946284600F000FF06468B
:1013C00066B9F64850F8254044B1012C06D0D4E95E
:1013D000020100EB8100A0630198E063681CC5B2C4
:1013E0003F2DE8D97CBD002400BF02E0142000F0AE
:1013F000EBFFEB4800780028F8D0EA480068642149
:10140000B0FBF1F0E74908600846006828B9002001
:10141000E5490870FF2000F014FF00BFFFF704FF4C
:101420000446E2480068E24908600020DF4908609D
:101430002046FFF7FDFEDE480068DA490968B0FB88
:10144000F1F0C0F16400D8490870FFF74CFFFFF7D6
:10145000AFFF0A2000F0B8FFE0E700B587B0032037
:1014600000218022D34BCDE90132CDE903104FF6A4
:10147000FE703E23D04A0090AFF2950000F0BFFC12
:1014800006AACEA13E2000F01CFE07B000BD00243D
:1014900000BF00BFFFF7C8FE0446C4480068401CF8
:1014A000C24908602046FFF7C3FEFFF71BFFF1E7C4
:1014B00000B587B0032000218022C44BCDE9013262
:1014C000CDE903104FF6FF703F23C14A0090AFF201
:1014D000410000F094FC06AABEA13F2000F0F1FDFF
:1014E00007B000BD04E0002200F8012B4A1E91B2B3
:1014F0000029F8D1704770B5C821BA48FFF7F2FF4C
:1015000000230FE0581C85B203EB8300B54901EBC3
:10151000800405EB850001EB8006002020706660EA
:10152000581C83B2092BEDD303EB8300AD4901EBCB
:1015300080040020207060600846AB49086070BDE0
:1015400070B54FF45871A948FFF7CCFF4FF4807184
:101550009248FFF7C7FF00230FE0581CC5B203EB0A
:10156000C300A24901EBC00405EBC50001EBC006B6
:1015700066619FA02064581CC3B20B2BEDD303EB14
:10158000C3009A4901EBC0040020606198A0206468
:1015900000209849086095489749086070BD00216F
:1015A000964A1170002004E00021954A1154411C14
:1015B000C8B20828F8D30021924A1170924A1170DB
:1015C000924A1160924A1160704700209149086068
:1015D00091490870914908709149087091490870C3
:1015E0009149086071490860714908606D49086057
:1015F0006B490870704710B5FFF770FEFFF7E5FF05
:10160000FFF7CDFFFFF79CFFFFF775FFFFF750FFD8
:10161000FFF723FFFFF763FE10BD82480078012823
:1016200008D17D480078FF2804D27B480078401C10
:101630007949087070477D49704A1278885C704912
:10164000095C7A4A515C01EBC0016F4A1170704726
:1016500010B5002473480078012830D1FFF7E4FD6D
:1016600004466D48007820B16B480078401E6A49F6
:10167000087069480078F8B968480078E0B9FFF761
:10168000DAFF46486049097850F821005F49086050
:101690005D4800785B49097888420DD05B48006856
:1016A000C06A401C59490968C8625F480068401C0C
:1016B0005D490860FFF7D7FD2046FFF7B9FD10BD73
:1016C00010B5002457480078012811D1FFF7ACFD70
:1016D00004465148007840B950480078FF2804D2A9
:1016E0004E480078401C4D4908702046FFF7A0FD89
:1016F00010BD10B50024FFF797FD0446464800785A
:10170000F8B946480078E0B9FFF795FF23483E490D
:10171000097850F821003D4908603B480078394974
:10172000097888420DD039480068C06A401C3749A2
:101730000968C8623C480068401C3B490860FFF7E4
:101740008BFD2046FFF774FD10BD10B50024354811
:101750000078012821D1FFF767FD04462F48007863
:10176000C0B12E480078401E2C4908700846007809
:1017700060B92948007828B92046FFF759FDFFF7DE
:10178000B8FF0AE02046FFF753FD06E02046FFF7CA
:101790004FFD02E02046FFF74BFD10BD3005002055
:1017A0003C00002034000020300000204C000020CD
:1017B00038000020300100202C03002075432F4FFB
:1017C000532D4949205374617400000030030020F8
:1017D0002C05002075432F4F532D49492049646C37
:1017E00065000000680000202C000020300600206A
:1017F0003F0000005C000020540000204100002059
:10180000420000203F00002040000020580000203F
:1018100050000020640000203D0000203E00002019
:101820004B0000204A000020280000203228000839
:1018300010B5E948007890B9FFF7FDFEE748007859
:10184000E7490870E748E549097850F82100E6497A
:10185000086008460068E5490860FFF7ECFC10BD29
:1018600010B50024022000F0AFFDFFF7DDFC0446B8
:101870000020DF4908602046FFF7DAFC0A2000F06C
:10188000A3FDFFF7D1FC0446D9480068D949086098
:101890000120D94908702046FFF7CAFC10BD70B579
:1018A0000026FFF770FDFFF7BFFC0646D34800682F
:1018B000401CD24908603046FFF7BAFCC6480078A1
:1018C000012853D1CE48007820B1012804D0022845
:1018D00009D103E001250BE0002509E001250120E5
:1018E000C749087004E001250020C549087000BF01
:1018F00000BF05B970BDC348046833E0FFF794FC2E
:101900000646206A50B3206A401E2062206A28BB27
:1019100094F8240000F0370040B114F8240F00F0D0
:10192000C800207001206070243C02E0002084F890
:10193000250094F8240000F0080078B92834A07835
:10194000B14909780843B04908702078AF49085C6C
:101950006178084314F82819AC4A50546469304639
:10196000FFF766FC94F826003F28C7D100BFC1E707
:1019700040F223107047704710B590F8282001F10D
:101980000B039B5C90F82940A34301F10B04A35483
:1019900023469B5C23B98B7A90F82A40A3438B7231
:1019A00010BD2DE9F04F05460F4690469946A87A9E
:1019B00097490E5C05F10B00805D11F800B00BEB50
:1019C000C60000F0FF0A874850F82A40002044F87B
:1019D000200F00BF207920EA0800207184F80590CC
:1019E0002079203C00F0080068B994F82A00864964
:1019F00009780843844908708448805D94F8291068
:101A000008438249885529462046FFF7B5FF5046CE
:101A1000BDE8F08F10B5754A1268D061734A12683C
:101A200092F8283000F10B02D25C704B1B6893F8DF
:101A300029301A436D4B1B6893F8284000F10B03C3
:101A40001A55827A694B1B6893F82A301A438272BE
:101A5000664A126892F828106C4A525C634B1B6805
:101A600093F829309A43694B5A541A46525C42B94A
:101A70005E4A126892F82A30634A12789A43624B9F
:101A80001A7010BD014600228A72002005E0002372
:101A900001F10B021354421CD0B20828F7D370474F
:101AA00005E011F8013B00F8013B531E9AB2002AF1
:101AB000F7D170470146002002E0491C421CD0B219
:101AC0000A78002AF9D170472DE9F84F05460F46EC
:101AD00090469946DDE90AAB00200090FFF7A4FB91
:101AE00000904C480468002C71D00C344949A0681F
:101AF00008600098FFF79CFB44F80C7CA57600205A
:101B000020766076606144F808BCC4F800A044F810
:101B1000048C0C98A080A4F806900020E077E810D0
:101B2000207705F00700E076217F01208840A0772C
:101B3000E17E012088406077002020612062A06261
:101B40006062E0622063AFF2583060630C3C0026B4
:101B500006E0002104F1440040F82610701CC6B2D3
:101B6000002EF6D02046FFF70DFC2046FFF7B8FB0D
:101B7000FFF75AFB00901B4840F8254021480068B9
:101B800060610020A0611F48006810B11D48006816
:101B900084611C4804602834A0781B4909780843F4
:101BA0001949087020781949085C6178084314F8CD
:101BB0002819164A505418480078401C16490870D5
:101BC0000098FFF735FB0020BDE8F88FFFE700988D
:101BD000FFF72EFB4220F7E74A00002040000020DC
:101BE0003F00002030050020580000205000002059
:101BF0004C000020340000203C0000206400002045
:101C0000600000205C000020410000204200002015
:101C100032280008540000204B0000202DE9FF5F0F
:101C20008146884600200090FFF7FEFA0090F948B0
:101C300050F8280030B10098FFF7FAFA282004B0D5
:101C4000BDE8F09FB9F1FF0F03D1F348006890F8A9
:101C50002690F04850F8294024B90098FFF7E8FA98
:101C60002920ECE7012C04D10098FFF7E1FA43208A
:101C7000E5E74FEAE80708F0070003900120B840C5
:101C800000F0FF0A01210398814001F0FF0B0020C2
:101C9000E04941F82900084640F8284014F8286F28
:101CA000A07802906078283C0190DC48815D019822
:101CB0000140D1B1D948805D01998843D749885501
:101CC0000846805D28B9D648007802998843D449EF
:101CD0000870D348007840EA0A00D1490870CF481C
:101CE000C05D40EA0B00CD49C855E569D5B105F1A5
:101CF0000B00805D0199884305F10B01885508466A
:101D0000805D18B9A87A02998843A872A87A40EA37
:101D10000A00A87205F10B00C05D40EA0B0005F156
:101D20000B01C85584F8268084F82870039884F83D
:101D3000270084F82AA084F829B00098FFF778FAE1
:101D4000B8480078012801D1FFF7D3FC002076E7DE
:101D50002DE9FE4F06460F4690461C464FF00009FF
:101D6000FFF762FA8146B048007828B14846FFF78D
:101D70005FFA3C20BDE8FE8FA64850F8240060BB07
:101D80000120A44941F824004846FFF751FA0023F6
:101D9000424639463046FFF7A7FA824600200090B7
:101DA000019003460246514602902046FFF78CFE02
:101DB000054635B99B48007801280CD1FFF799FCFE
:101DC00009E0FFF731FA81460020924941F82400EA
:101DD0004846FFF72DFA2846CCE74846FFF728FA91
:101DE0002820C7E702F0010343B102F002032BB140
:101DF00002E0491E002308C00029FAD170472DE9EE
:101E0000F04F85B081468A4693461C46DDE90F783F
:101E1000129D00200390FFF707FA03908248007894
:101E200030B10398FFF704FA3C2005B0BDE8F08F0D
:101E3000784850F8240088BB0120764941F82400F6
:101E40000398FFF7F5F92A4641463846FFF7CAFFDF
:101E50002B465A4651464846FFF746FA04901198D9
:101E6000CDE9008002953A4620460E9B0499FFF783
:101E70002BFE064636B96B48007801280CD1FFF7D7
:101E800038FC09E0FFF7D0F903900020614941F8E0
:101E900024000398FFF7CCF93046C6E7FFE7039824
:101EA000FFF7C6F92820C0E770B5054600265E4852
:101EB000007808B1402070BD3F2D01D13E20FAE7E7
:101EC000FFF7B2F90646FF2D03D15348006890F89A
:101ED0002650504850F8254024B93046FFF7A8F95D
:101EE0004320E8E7012C04D13046FFF7A1F93D205B
:101EF000E1E714F8280F4949085C617888432178A4
:101F0000464A505414F828091146085C30B994F830
:101F10002A1043480078884341490870E06918B1A5
:101F20002046E169FFF728FD0020206284F82400A4
:101F300084F825003D480078FF2804D23B4800780B
:101F4000401C3A4908703046FFF772F9FFF713FD5D
:101F5000FFF76AF906463548007820B13348007823
:101F6000401E324908702046FFF7BBF93048007820
:101F7000401E2F4908700020264941F82500A0691D
:101F800030B90020616988612A496069086005E00C
:101F9000D4E905014861D4E9051088612648006844
:101FA00060612548046025A020643046FFF740F9B1
:101FB0001C480078012801D1FFF79BFB00207AE73D
:101FC0002DE9F041044600273F2C02D13E20BDE818
:101FD000F081FF2C0BD1FFF727F907460E48006868
:101FE00090F82B603846FFF723F93046EFE7FFF70C
:101FF0001BF90746074850F8245025B93846FFF723
:1020000017F94320E3E7012D1AD13846FFF710F9FD
:102010003D20DCE730050020500000204200002079
:10202000410000204A0000203D0000203E0000202A
:102030004B0000205C000020540000203F00000006
:102040003F2085F82B003846FFF7F2F80020BEE766
:102050002DE9F04706460F4614464FF00008D448D5
:10206000007820B1112020700020BDE8F087FFF734
:10207000DBF88046FF2E03D1CE48006890F826603A
:10208000CD4850F8265035B94046FFF7D1F84320E7
:1020900020700020E9E7012D06D14046FFF7C8F87F
:1020A000432020700020E0E7286C38603868FFF794
:1020B00001FD81464046FFF7BBF8002020704846EE
:1020C000D3E72DE9F04106460F4614464FF00008CD
:1020D000B748007818B112202070BDE8F081FFF7F2
:1020E000A3F88046FF2E03D1B248006890F826601E
:1020F000B14850F826502DB94046FFF799F84320D3
:102100002070EAE7012D05D14046FFF791F8432002
:102110002070E2E72F644046FFF78AF80020207025
:1021200000BFDAE770B505460026FFF77DF80646E2
:10213000A14850F8254024B93046FFF779F84620E9
:1021400070BD012C04D13046FFF772F84320F7E749
:1021500094F8240000F0080060B314F8240F00F095
:10216000F700207014F82409F8B9206AC8B9283497
:10217000A0789249097808439049087020789049DE
:10218000085C6178084314F828198D4A5054304689
:10219000FFF74EF88B480078012809D1FFF7A9FA1C
:1021A00006E03046FFF744F802E03046FFF740F81B
:1021B0000020C5E73046FFF73BF84420C0E72DE993
:1021C000F04707460D464FF0000A0020286068607F
:1021D000FFF72AF88246FF2F03D17648006890F86F
:1021E0002670754850F827402CB95046FFF720F864
:1021F0004320BDE8F087012C04D15046FFF718F8C2
:102200004320F6E7207C00F0010020B95046FFF79C
:102210000FF84520EDE70026D4F80C90D4F808809C
:102220005046FFF705F800E0761C58F8041B00291B
:10223000FAD0B0002860A9EB06008000686000209A
:10224000D7E72DE9F04105464FF00008FEF7ECFF17
:102250008046FF2D05D15748006890F8265001268A
:1022600008E05448006890F82600A84201D10126F1
:1022700000E00026504850F825402CB94046FEF7B3
:10228000D7FF4820BDE8F081012C04D14046FEF77D
:10229000CFFF4320F6E794F828704948C05D94F8D2
:1022A000291088434649C8550846C05D30B994F89E
:1022B0002A104248007888434049087094F8240066
:1022C00040F0080084F824004046FEF7B1FF012EDC
:1022D00001D1FFF70EFA0020D4E72DE9F0410546C1
:1022E0000E460027FEF7A0FF0746FF2D03D1314819
:1022F000006890F82650304850F825402CB93846F0
:10230000FEF796FF2920BDE8F081012C04D1384664
:10231000FEF78EFF4320F6E7482221463046FFF7BE
:10232000BFFB3846FEF784FF0020ECE72DE9F047BD
:1023300004460E4617464FF00009FEF775FF81462A
:10234000FF2C02D11B48056802E01B4850F82450BE
:1023500005F1440050F826804846FEF769FF00204A
:1023600038704046BDE8F0872DE9F04704460E4638
:10237000174698464FF00009FEF756FF8146FF2C9E
:1023800002D10C48056802E00B4850F8245005F1D2
:10239000440040F826704846FEF74AFF002088F8BF
:1023A0000000BDE8F08710B5FF20FFF77DFD10BDF0
:1023B0003D0000205000002030050020410000209A
:1023C000420000204A00002070B505460026634800
:1023D000007800B170BD6248007800B1FAE71DB323
:1023E000FEF722FF06465F48006890F828405E48E6
:1023F000005D5C49096891F8291088435A490855DD
:102400000846005D40B95748006890F82A105748C0
:102410000078884355490870524800680562304684
:10242000FEF706FFFFF765F900BFD3E72DE9F0419E
:1024300004460D4616461F464848007810B1552000
:10244000BDE8F0814648007808B13220F8E7781DF1
:10245000642148434FF47A71B0FBF1F14FF46160AD
:102460006043C5EB051200EB8200304400EBC00274
:1024700002EB001001EB80084046FFF7A5FF0020AB
:10248000DEE770B5054600263F2D01D32A2070BD3A
:10249000FEF7CAFE0646364850F8254024B93046B5
:1024A000FEF7C6FE4320F2E7012C04D13046FEF7CA
:1024B000BFFE4320EBE7206A20B93046FEF7B8FEA6
:1024C0005020E4E70020206294F8240000F0370058
:1024D00040B114F8240F20F0370020700120607004
:1024E000243C02E0002084F8250094F8240000F049
:1024F0000800A8B92834A0781C49097808431B496A
:10250000087020781849085C6178084314F8281985
:10251000154A50543046FEF78BFEFFF7EAF802E00A
:102520003046FEF785FE0020B1E770B50025FEF7C6
:102530007BFE05460F4804682846FEF779FE2046D4
:1025400070BD70B504460025FEF76EFE05460948CD
:1025500004602846FEF76CFE70BD00003D000020C0
:102560003E000020500000204200002041000020DA
:102570003005002064000020704700BFFEE700BF68
:10258000FEE700BFFEE700BFFEE7704770477047F9
:1025900070477047704770477047704710B586B0F6
:1025A000FEF7C0FB4FF48030FEF7E3FBFEF720FCA4
:1025B0000446002C3ED01020FDF73CFF0220FDF722
:1025C00025FF0020FEF787FC0020FEF796FC4FF465
:1025D0008060FEF789FC4FF40040FEF7A9FC302034
:1025E000FEF74AFC4FF4C060FEF74FFC0120FEF7F7
:1025F00055FC00BF3B20FEF7DFFB0028FAD002218C
:10260000C803FEF72DFC4FF4E0114FF48030FEF7C5
:1026100018FC0120FEF721FC00BF3920FEF7CCFB9F
:102620000028FAD00220FEF748FC00BFFEF74EFC5F
:102630000828FBD101A8FEF7B1FC01210803FEF731
:102640008EFD01218803FEF797FD01217D20FEF715
:1026500086FD002006B010BD30B518480068642221
:10266000B0FBF2F1B1F1807F00D31DE021F07F409B
:10267000401E4FF0E022506150170F22002807DA69
:1026800013071D0E0E4B00F00F04241F1D5503E011
:1026900013071C0E0B4B1C5400BF00204FF0E02210
:1026A00090610720106100BF30BD10B5FFF776FFC5
:1026B000FFF7D2FF00F02AF810BD00000000002054
:1026C00018ED00E000E400E008B501210820FEF765
:1026D00046FD4FF48050ADF8000010208DF8030047
:1026E00003208DF8020069460A48FEF7CDF908BDBF
:1026F00010B54FF480510748FEF773FA10BD10B5BE
:102700004FF480510348FEF76EFA10BD10B5FFF785
:10271000DBFF10BD0010014005E000230122194637
:102720001846FFF783FEF8E700B587B003200021C5
:102730004FF48072244BCDE90132CDE9031005201E
:102740000346224A00902248FFF759FB06AA21A11E
:102750000320FFF7B6FC07B000BDFFF7A6FFFFF7A9
:10276000E3FF0FE0FFF7C4FF0023012219461846DC
:10277000FFF75CFEFFF7C3FF00230122194618464E
:10278000FFF754FEEEE700B587B0032000214FF4B9
:102790008072124BCDE90310CDE90132009003465F
:1027A0000F4A1048FFF72BFB06AA0FA10320FFF7E3
:1027B00088FC07B000BD10B5FEF71DFFFFF7E3FF73
:1027C000FFF736F8002010BD900D00208C1100207E
:1027D0001927000849646C6500000000900900207A
:1027E0008C0D00205B270008544553540000000066
:1027F000064C074D06E0E06840F0010394E807004E
:1028000098471034AC42F6D3FDF7A6FC34290008F3
:102810005429000802E008C8121F08C1002AFAD192
:1028200070477047002001E001C1121F002AFBD150
:1028300070470000010002000100030001000200D7
:102840000100040001000200010003000100020079
:102850000100050001000200010003000100020068
:102860000100040001000200010003000100020059
:102870000100060001000200010003000100020047
:102880000100040001000200010003000100020039
:102890000100050001000200010003000100020028
:1028A0000100040001000200010003000100020019
:1028B0000100070001000200010003000100020006
:1028C00001000400010002000100030001000200F9
:1028D00001000500010002000100030001000200E8
:1028E00001000400010002000100030001000200D9
:1028F00001000600010002000100030001000200C7
:1029000001000400010002000100030001000200B8
:1029100001000500010002000100030001000200A7
:102920000100040001000200010003000100020098
:102930000100000054290008000000206800000089
:1029400014280008BC290008680000202815000091
:102950002428000800A24A04000000000000000033
:102960000102030406070809000000000102030435
:10297000010203040607080902040608000000001B
:102980000000000000000000000000000000000047
:102990000000000000000000000000000000000037
:1029A0000000000000000000000000000000000027
:0C29B0000000000000000000000000001B
:04000005080001519D
:00000001FF
